S00B000044494F2E737265633D
S11300000C942A000C9447000C9447000C9447006D
S11300100C9447000C9447000C9447000C94470040
S11300200C9447000C9447000C9456030C9449001C
S11300300C9447000C9447000C9447000C94470020
S11300400C9447000C9447000C9447000C94470010
S11300500C94470011241FBECFE5D8E0DEBFCDBF0E
S113006010E0A0E6B0E0E4E3F8E002C005900D92F1
S1130070A236B107D9F720E0A2E6B0E001C01D9294
S1130080A637B207E1F70E94B4020C9418040C944A
S113009000001F920F9200905F000F921124CF93E3
S11300A0DF93CDB7DEB70000DF91CF910F900092C0
S11300B05F000F901F901895CF93DF93CDB7DEB7F5
S11300C061E08DE00E94AF0161E08EE00E94AF012B
S11300D061E08FE00E94AF0181E090E00E94C803DC
S11300E00000DF91CF910895CF93DF93CDB7DEB7B2
S11300F080917500813051F488E390E028E330E08A
S1130100F901308120E22327FC0120830000DF91E4
S1130110CF910895CF93DF93CDB7DEB7809175006B
S1130120813051F488E390E028E330E0F901308134
S113013020E42327FC0120830000DF91CF91089560
S1130140CF93DF93CDB7DEB780917500813051F442
S113015088E390E028E330E0F901308120E82327A8
S1130160FC0120830000DF91CF910895CF93DF93AA
S113017000D000D01F92CDB7DEB79A8389836B83FA
S11301805D834C8380916200282F30E0C901880F81
S1130190991F880F991F820F931F8A599F4F298196
S11301A03A81FC013183208380916200282F30E062
S11301B04C81C901880F991F880F991F820F931FC3
S11301C088599F4FFC01408380916200282F30E0C2
S11301D04C81C901880F991F880F991F820F931FA3
S11301E087599F4FFC01408380916200282F30E0A3
S11301F0C901880F991F880F991F820F931F865971
S11302009F4F2B81FC012083809162008F5F80933C
S1130210620000000F900F900F900F900F90DF91ED
S1130220CF910895CF93DF9300D000D01F92CDB724
S1130230DEB71A8219825BC080916300282F30E0F8
S1130240C901880F991F880F991F820F931F8A591C
S11302509F4FFC0180819181892B09F445C08981DC
S1130260282F30E0C901880F991F880F991F820F2A
S1130270931F87599F4FFC0180814FEF480FC9019D
S1130280880F991F880F991F820F931F87599F4FBB
S1130290FC0140838981282F30E0C901880F991F10
S11302A0880F991F820F931F87599F4FFC018081EC
S11302B08823D1F48A81482F50E08981282F30E0A7
S11302C0C901880F991F880F991F820F931F8659A0
S11302D09F4FFC012081CE010396840F951FFC01E2
S11302E020838A818F5F8A8389818F5F8983898153
S11302F0833008F4A1CF8A81282F30E0CE01039601
S1130300B9010E94D30219821DC08981882F90E00F
S11303109E012D5F3F4F820F931FFC018081282F88
S113032030E0C901880F991F880F991F820F931F0E
S11303308A599F4FFC0180819181FC010995898133
S11303408F5F898399818A819817F8F200000F9052
S11303500F900F900F900F90DF91CF910895CF934E
S1130360DF9300D0CDB7DEB789836A838A81882F73
S113037090E0009721F0019709F47AC0EFC08981D9
S11303808830B0F48AE390E02AE330E0F901208178
S1130390622F2981422F50E021E030E002C0220F79
S11303A0331F4A95E2F720952623FC012083D3C00E
S11303B089818830E0F089818031C8F487E390E056
S11303C027E330E0F9012081622F2981222F30E0D8
S11303D0A9014850510921E030E002C0220F331F27
S11303E04A95E2F720952623FC01208340C08981A9
S11303F08031E0F089818831C8F484E390E024E31B
S113040030E0F9012081622F2981222F30E0A901F7
S11304104051510921E030E002C0220F331F4A95B8
S1130420E2F720952623FC01208321C089818831AD
S113043008F491C08981803208F08DC081E390E096
S113044021E330E0F9012081622F2981222F30E05D
S1130450A9014851510921E030E002C0220F331FA5
S11304604A95E2F720952623FC01208374C073C0CB
S113047089818830A8F48AE390E02AE330E0F90126
S11304802081622F2981422F50E021E030E002C018
S1130490220F331F4A95E2F7262BFC0120835DC00F
S11304A089818830D8F089818031C0F487E390E075
S11304B027E330E0F9012081622F2981222F30E0E7
S11304C0A9014850510921E030E002C0220F331F36
S11304D04A95E2F7262BFC0120833CC089818031B8
S11304E0D8F089818831C0F484E390E024E330E0DB
S11304F0F9012081622F2981222F30E0A901405186
S1130500510921E030E002C0220F331F4A95E2F77F
S1130510262BFC0120831EC089818831F0F089815B
S11305208032D8F481E390E021E330E0F9012081C6
S1130530622F2981222F30E0A9014851510921E07D
S113054030E002C0220F331F4A95E2F7262BFC014C
S1130550208303C002C0000001C0000000000F900F
S11305600F90DF91CF910895CF93DF93CDB7DEB78E
S113057078940E945C0048EE53E061E084E790E0E8
S11305800E94B60040ED57E062E08AE890E00E94E5
S1130590B60048EB5BE060E080EA90E00E94B600C1
S11305A00E941201FDCFCF93DF93CDB7DEB72A9718
S11305B00FB6F894DEBF0FBECDBF98878F837A87BE
S11305C069871A82198260C089819A819C838B838E
S11305D04EC089819A81880F991F2F813885820F97
S11305E0931FFC01208131818B819C81880F991F8D
S11305F04F815885840F951FFC018081918182175A
S1130600930784F589819A81880F991F2F813885F2
S1130610820F931FFC01808191819E838D83898148
S11306209A81880F991F2F813885820F931F2B8100
S11306303C81220F331F4F815885240F351FF90148
S113064020813181FC01318320838B819C81880F3F
S1130650991F2F813885820F931F2D813E81FC01C4
S1130660318320838B819C8101969C838B832B8196
S11306703C8189859A85281739070CF4AACF89818A
S11306809A8101969A83898329813A8189859A85F9
S1130690281739070CF498CF00002A960FB6F8945F
S11306A0DEBF0FBECDBFDF91CF9108951F920F9291
S11306B000905F000F9211242F933F934F935F9309
S11306C06F937F938F939F93AF93BF93EF93FF9316
S11306D0CF93DF93CDB7DEB7809160009091610036
S11306E0FC0109950000DF91CF91FF91EF91BF913B
S11306F0AF919F918F917F916F915F914F913F91B6
S11307002F910F9000925F000F901F901895CF9338
S1130710DF93CDB7DEB781E0809375000000DF91F1
S1130720CF910895CF93DF93CDB7DEB78091640066
S113073090916500019690936500809364000E94F7
S113074087030000DF91CF910895CF93DF93CDB756
S1130750DEB783E590E023E530E0F90120812160F4
S1130760FC01208383E590E023E530E0F90120815A
S11307702260FC01208383E590E023E530E0F90169
S113078020812B7FFC0120830000DF91CF9108950D
S1130790CF93DF931F92CDB7DEB789830E94A50361
S11307A061E08BE00E94AF0183E590E023E530E057
S11307B0F90120812068FC01208383E590E023E592
S11307C030E0F90120812F7BFC01208383E590E058
S11307D023E530E0F90120812860FC01208383E5D2
S11307E090E023E530E0F90120812F7EFC01208395
S11307F083E590E023E530E0F90120812062FC01EB
S1130800208389E590E029E530E0F9012081226028
S1130810FC01208382E590E0FC0110828CE590E0ED
S11308202981FC01208300000F90DF91CF9108956E
S1070830F894FFCF66
S1050834920329
S9030000FC
