:100000000C942A000C9447000C9447000C94470071
:100010000C9447000C9447000C9447000C94470044
:100020000C9447000C9447000C9449000C94760003
:100030000C9447000C9447000C9447000C94470024
:100040000C9447000C9447000C9447000C94470014
:100050000C94470011241FBECFE5D8E0DEBFCDBF12
:1000600011E0A0E6B0E0E8E9F5E002C005900D92ED
:10007000A832B107D9F721E0A8E2B1E001C01D9292
:10008000A932B207E1F70E944F020C94CA020C9405
:1000900000001F920F9200905F000F9211242F9387
:1000A0003F934F935F936F937F938F939F93AF9300
:1000B000BF93EF93FF93CF93DF93CDB7DEB70E944B
:1000C000D7000000DF91CF91FF91EF91BF91AF91E9
:1000D0009F918F917F916F915F914F913F912F9160
:1000E0000F9000925F000F901F9018951F920F9233
:1000F00000905F000F921124CF93DF93CDB7DEB74E
:100100000000DF91CF910F9000925F000F901F9041
:100110001895CF93DF93CDB7DEB761E08DE00E94F5
:100120004A0161E08EE00E944A0161E08FE00E9496
:100130004A0181E090E00E947A020000DF91CF91B5
:100140000895CF93DF93CDB7DEB788E390E028E33F
:1001500030E0F901308120E22327FC0120830000F8
:10016000DF91CF910895CF93DF93CDB7DEB788E3CA
:1001700090E028E330E0F901308120E42327FC01FE
:1001800020830000DF91CF910895CF93DF93CDB707
:10019000DEB788E390E028E330E0F901308120E821
:1001A0002327FC0120830000DF91CF910895CF9396
:1001B000DF93CDB7DEB780912801882F90E0880FBC
:1001C000991F805A9F4FFC01808191810E94EC0011
:1001D0000000DF91CF910895CF93DF9300D0CDB78A
:1001E000DEB79A83898380912801882F90E0880F59
:1001F000991F805A9F4FFC0180819181892BC9F002
:10020000809128018436A8F480912801882F90E0FD
:10021000880F991F805A9F4F29813A81FC013183B1
:1002200020830E942401809128018F5F8093280100
:1002300005C0809128018F5F8093280100000F90F6
:100240000F90DF91CF910895CF93DF93CDB7DEB7B5
:1002500080912801882F90E0880F991F805A9F4F26
:10026000FC0180819181892B89F08091280184365D
:1002700068F480912801882F90E0880F991F805A98
:100280009F4FFC0180819181FC0109950000DF9165
:10029000CF910895CF93DF9300D0CDB7DEB7898398
:1002A0006A838A81882F90E0009721F0019709F4F2
:1002B0007AC0EFC089818830B0F48AE390E02AE305
:1002C00030E0F9012081622F2981422F50E021E0A6
:1002D00030E002C0220F331F4A95E2F72095262313
:1002E000FC012083D3C089818830E0F0898180318E
:1002F000C8F487E390E027E330E0F9012081622F22
:100300002981222F30E0A9014850510921E030E035
:1003100002C0220F331F4A95E2F720952623FC01E5
:10032000208340C089818031E0F089818831C8F420
:1003300084E390E024E330E0F9012081622F2981F9
:10034000222F30E0A9014051510921E030E002C0E4
:10035000220F331F4A95E2F720952623FC012083C4
:1003600021C08981883108F491C08981803208F0E8
:100370008DC081E390E021E330E0F9012081622F1C
:100380002981222F30E0A9014851510921E030E0B4
:1003900002C0220F331F4A95E2F720952623FC0165
:1003A000208374C073C089818830A8F48AE390E008
:1003B0002AE330E0F9012081622F2981422F50E0A9
:1003C00021E030E002C0220F331F4A95E2F7262BCE
:1003D000FC0120835DC089818830D8F0898180311B
:1003E000C0F487E390E027E330E0F9012081622F39
:1003F0002981222F30E0A9014850510921E030E045
:1004000002C0220F331F4A95E2F7262BFC012083FE
:100410003CC089818031D8F089818831C0F484E37F
:1004200090E024E330E0F9012081622F2981222F1E
:1004300030E0A9014051510921E030E002C0220F13
:10044000331F4A95E2F7262BFC0120831EC08981C9
:100450008831F0F089818032D8F481E390E021E3A3
:1004600030E0F9012081622F2981222F30E0A9019B
:100470004851510921E030E002C0220F331F4A9554
:10048000E2F7262BFC01208303C002C0000001C05C
:10049000000000000F900F90DF91CF910895CF934F
:1004A000DF93CDB7DEB778940E948900FFCFCF935A
:1004B000DF93CDB7DEB783E590E023E530E0F901C7
:1004C00020812160FC01208383E590E023E530E07A
:1004D000F90120812260FC01208383E590E023E57F
:1004E00030E0F90120812B7FFC0120830000DF91A7
:1004F000CF910895CF93DF931F92CDB7DEB7898355
:100500000E94570261E08BE00E944A0183E590E07F
:1005100023E530E0F90120812068FC01208383E598
:1005200090E023E530E0F90120812F7BFC0120835E
:1005300083E590E023E530E0F90120812860FC01AB
:10054000208383E590E023E530E0F90120812F7ED0
:10055000FC01208383E590E023E530E0F901208170
:100560002062FC01208389E590E029E530E0F90173
:1005700020812260FC01208382E590E0FC01108252
:100580008CE590E02981FC01208300000F90DF9131
:08059000CF910895F894FFCF0C
:10059800A100B300C500000000000000000000003A
:1005A8000000000000000000000000000000000043
:1005B8000000000000000000000000000000000033
:1005C8000000000000000000000000000000000023
:1005D8000000000000000000000000000000000013
:1005E8000000000000000000000000000000000003
:1005F80000000000000000000000000000000000F3
:1006080000000000000000000000000000000000E2
:1006180000000000000000000000000000000000D2
:1006280000000000000000000000000000000000C2
:1006380000000000000000000000000000000000B2
:1006480000000000000000000000000000000000A2
:0806580000000000000000009A
:00000001FF
