S00B000044494F2E737265633D
S11300000C942A000C9447000C9447000C9447006D
S11300100C9447000C9447000C9447000C94470040
S11300200C9447000C9447000C9434020C9449003F
S11300300C9447000C9447000C9447000C94470020
S11300400C9447000C9447000C9447000C94470010
S11300500C94470011241FBECFE5D8E0DEBFCDBF0E
S113006010E0A0E6B0E0EEEDF5E002C005900D92E0
S1130070A236B107D9F720E0A2E6B0E001C01D9294
S1130080AB36B207E1F70E941E020C94ED020C9409
S113009000001F920F9200905F000F921124CF93E3
S11300A0DF93CDB7DEB70000DF91CF910F900092C0
S11300B05F000F901F901895CF93DF93CDB7DEB7F5
S11300C061E08DE00E94190161E08EE00E94190157
S11300D061E08FE00E94190181E090E00E949D029E
S11300E00000DF91CF910895CF93DF93CDB7DEB7B2
S11300F080916A00813051F488E390E028E330E095
S1130100F901308120E22327FC0120830000DF91E4
S1130110CF910895CF93DF93CDB7DEB780916A0076
S1130120813051F488E390E028E330E0F901308134
S113013020E42327FC0120830000DF91CF91089560
S1130140CF93DF93CDB7DEB780916A00813051F44D
S113015088E390E028E330E0F901308120E82327A8
S1130160FC0120830000DF91CF910895CF93DF93AA
S113017000D0CDB7DEB79A838983809166009091D1
S11301806700880F991F8E599F4FFC0180819181D0
S1130190892BF1F480916600909167000297C0F476
S11301A08091660090916700880F991F8E599F4F28
S11301B029813A81FC0131832083809166009091EA
S11301C067000196909367008093660081E001C008
S11301D080E00F900F90DF91CF910895CF93DF933C
S11301E0CDB7DEB78091680090916900880F991FA0
S11301F08E599F4FFC0180819181892BB1F08091B0
S1130200680090916900880F991F8E599F4FFC01D7
S113021080819181FC010995809168009091690029
S1130220019690936900809368000000DF91CF915C
S11302300895CF93DF9300D0CDB7DEB789836A8367
S11302408A81882F90E0009721F0019709F47AC001
S1130250EFC089818830B0F48AE390E02AE330E08B
S1130260F9012081622F2981422F50E021E030E002
S113027002C0220F331F4A95E2F720952623FC0182
S11302802083D3C089818830E0F089818031C8F42B
S113029087E390E027E330E0F9012081622F298190
S11302A0222F30E0A9014850510921E030E002C07A
S11302B0220F331F4A95E2F720952623FC01208361
S11302C040C089818031E0F089818831C8F484E3B9
S11302D090E024E330E0F9012081622F2981222F6C
S11302E030E0A9014051510921E030E002C0220F61
S11302F0331F4A95E2F720952623FC01208321C071
S11303008981883108F491C08981803208F08DC0D8
S113031081E390E021E330E0F9012081622F29811B
S1130320222F30E0A9014851510921E030E002C0F8
S1130330220F331F4A95E2F720952623FC012083E0
S113034074C073C089818830A8F48AE390E02AE3FA
S113035030E0F9012081622F2981422F50E021E011
S113036030E002C0220F331F4A95E2F7262BFC012E
S113037020835DC089818830D8F089818031C0F4C0
S113038087E390E027E330E0F9012081622F29819F
S1130390222F30E0A9014850510921E030E002C089
S11303A0220F331F4A95E2F7262BFC0120833CC021
S11303B089818031D8F089818831C0F484E390E068
S11303C024E330E0F9012081622F2981222F30E0DB
S11303D0A9014051510921E030E002C0220F331F2E
S11303E04A95E2F7262BFC0120831EC089818831BF
S11303F0F0F089818032D8F481E390E021E330E0A9
S1130400F9012081622F2981222F30E0A90148516E
S1130410510921E030E002C0220F331F4A95E2F770
S1130420262BFC01208303C002C0000001C0000091
S113043000000F900F90DF91CF910895CF93DF9339
S1130440CDB7DEB778940E945C0084E790E00E9408
S1130450B6008AE890E00E94B60080EA90E00E942C
S1130460B6000E94EE00FDCF1F920F9200905F0035
S11304700F9211242F933F934F935F936F937F9326
S11304808F939F93AF93BF93EF93FF93CF93DF9398
S1130490CDB7DEB78091600090916100FC010995B1
S11304A00000DF91CF91FF91EF91BF91AF919F91A8
S11304B08F917F916F915F914F913F912F910F9009
S11304C000925F000F901F901895CF93DF93CDB7E4
S11304D0DEB781E080936A000000DF91CF91089538
S11304E0CF93DF93CDB7DEB70E9465020000DF91A2
S11304F0CF910895CF93DF93CDB7DEB783E590E036
S113050023E530E0F90120812160FC01208383E5AB
S113051090E023E530E0F90120812260FC01208392
S113052083E590E023E530E0F90120812B7FFC0195
S113053020830000DF91CF910895CF93DF931F9222
S1130540CDB7DEB789830E947A0261E08BE00E9416
S1130550190183E590E023E530E0F901208120686A
S1130560FC01208383E590E023E530E0F90120815C
S11305702F7BFC01208383E590E023E530E0F90143
S113058020812860FC01208383E590E023E530E0AE
S1130590F90120812F7EFC01208383E590E023E58F
S11305A030E0F90120812062FC01208389E590E09C
S11305B029E530E0F90120812260FC01208382E5F5
S11305C090E0FC0110828CE590E02981FC012083FD
S11105D000000F90DF91CF910895F894FFCFB3
S10505DE7002A5
S9030000FC
