S00B000044494F2E737265633D
S11300000C942A000C9447000C9447000C9447006D
S11300100C9447000C9447000C9447000C94470040
S11300200C9447000C9447000C9447000C9449002E
S11300300C9447000C9447000C9447000C94470020
S11300400C9447000C9447000C9447000C94470010
S11300500C94470011241FBECFE5D8E0DEBFCDBF0E
S113006010E0A0E6B0E0E6E0F5E002C005900D92F5
S1130070A036B107D9F721E0A0E6B0E001C01D9297
S1130080A832B207E1F70E94F6010C9481020C94A5
S113009000001F920F9200905F000F921124CF93E3
S11300A0DF93CDB7DEB70000DF91CF910F900092C0
S11300B05F000F901F901895CF93DF93CDB7DEB7F5
S11300C081E090E00E94310261E08DE00E94F10045
S11300D061E08EE00E94F10061E08FE00E94F10097
S11300E00000DF91CF910895CF93DF93CDB7DEB7B2
S11300F088E390E028E330E0F901308120E223270F
S1130100FC0120830000DF91CF910895CF93DF930A
S1130110CDB7DEB788E390E028E330E0F901308121
S113012020E42327FC0120830000DF91CF91089570
S1130130CF93DF93CDB7DEB788E390E028E330E0D8
S1130140F901308120E82327FC0120830000DF919E
S1130150CF910895CF93DF9300D01F92CDB7DEB730
S11301609A8389836B838B81882F90E0880F991FF2
S1130170805A9F4F29813A81FC01318320830000FA
S11301800F900F900F90DF91CF910895CF93DF934D
S11301901F92CDB7DEB7198219821BC08981882FBF
S11301A090E0880F991F805A9F4FFC0180819181B4
S11301B0892B61F08981882F90E0880F991F805ADC
S11301C09F4FFC0180819181FC01099589818F5F9A
S11301D089838981843610F300000F90DF91CF91D9
S11301E00895CF93DF9300D0CDB7DEB789836A83B8
S11301F08A81882F90E0009721F0019709F47AC052
S1130200EFC089818830B0F48AE390E02AE330E0DB
S1130210F9012081622F2981422F50E021E030E052
S113022002C0220F331F4A95E2F720952623FC01D2
S11302302083D3C089818830E0F089818031C8F47B
S113024087E390E027E330E0F9012081622F2981E0
S1130250222F30E0A9014850510921E030E002C0CA
S1130260220F331F4A95E2F720952623FC012083B1
S113027040C089818031E0F089818831C8F484E309
S113028090E024E330E0F9012081622F2981222FBC
S113029030E0A9014051510921E030E002C0220FB1
S11302A0331F4A95E2F720952623FC01208321C0C1
S11302B08981883108F491C08981803208F08DC029
S11302C081E390E021E330E0F9012081622F29816C
S11302D0222F30E0A9014851510921E030E002C049
S11302E0220F331F4A95E2F720952623FC01208331
S11302F074C073C089818830A8F48AE390E02AE34B
S113030030E0F9012081622F2981422F50E021E061
S113031030E002C0220F331F4A95E2F7262BFC017E
S113032020835DC089818830D8F089818031C0F410
S113033087E390E027E330E0F9012081622F2981EF
S1130340222F30E0A9014850510921E030E002C0D9
S1130350220F331F4A95E2F7262BFC0120833CC071
S113036089818031D8F089818831C0F484E390E0B8
S113037024E330E0F9012081622F2981222F30E02B
S1130380A9014051510921E030E002C0220F331F7E
S11303904A95E2F7262BFC0120831EC0898188310F
S11303A0F0F089818032D8F481E390E021E330E0F9
S11303B0F9012081622F2981222F30E0A9014851BF
S11303C0510921E030E002C0220F331F4A95E2F7C1
S11303D0262BFC01208303C002C0000001C00000E2
S11303E000000F900F90DF91CF910895CF93DF938A
S11303F0CDB7DEB70E945C0060E084E790E00E9425
S1130400AA0061E086E890E00E94AA0062E088E920
S113041090E00E94AA000E94C600FFCFCF93DF9312
S1130420CDB7DEB783E590E023E530E0F901208124
S11304302160FC01208383E590E023E530E0F901AD
S113044020812260FC01208383E590E023E530E0F5
S1130450F90120812B7FFC0120830000DF91CF91E3
S11304600895CF93DF931F92CDB7DEB789830E949F
S11304700E0261E08BE00E94F10083E590E023E549
S113048030E0F90120812068FC01208383E590E0BD
S113049023E530E0F90120812F7BFC01208383E5F3
S11304A090E023E530E0F90120812860FC012083FD
S11304B083E590E023E530E0F90120812F7EFC0103
S11304C0208383E590E023E530E0F9012081206278
S11304D0FC01208389E590E029E530E0F9012081E1
S11304E02260FC01208382E590E0FC0110828CE50F
S11304F090E02981FC01208300000F90DF91CF91CF
S10905000895F894FFCFFA
S9030000FC
