S00B000044494F2E737265633D
S11300000C942A000C9434000C9434000C943400A6
S11300100C9434000C9434000C9434000C9434008C
S11300200C9434000C9434000C9434000C9434007C
S11300300C9434000C9434000C9434000C9434006C
S11300400C9434000C9434000C9434000C9434005C
S11300500C94340011241FBECFE5D8E0DEBFCDBF21
S11300600E94FC000C945C010C940000662321F0B7
S1130070613009F448C00895883070F44AB321E02F
S113008030E0B90102C0660F771F8A95E2F7CB0111
S1130090809584238ABB089598EF980F983070F464
S11300A047B321E030E0B90102C0660F771F9A958B
S11300B0E2F7CB018095842387BB089590EF980FD6
S11300C0983070F444B321E030E0B90102C0660F07
S11300D0771F9A95E2F7CB018095842384BB08951A
S11300E098EE980F983008F04FC041B321E030E00B
S11300F0B90102C0660F771F9A95E2F7CB0180958C
S1130100842381BB0895883068F44AB321E030E049
S1130110B90102C0660F771F8A95E2F7CB01842BE1
S11301208ABB089598EF980F983068F447B321E09C
S113013030E0B90102C0660F771F9A95E2F7CB0150
S1130140842B87BB089590EF980F983068F444B3DC
S113015021E030E0B90102C0660F771F9A95E2F7FB
S1130160CB01842B84BB089598EE980F983060F4EB
S113017041B321E030E0B90102C0660F771F9A95C0
S1130180E2F7CB01842B81BB08950E94010160E05A
S11301908EE10E9436008EB580688EBD8EB5806477
S11301A08EBD88B7806288BF089508B605FEFDCF6E
S11301B088B7806288BF1DBC1CBC8EB58F7B8EBD8A
S11301C008B605FEFDCF88B7806288BF87B566B5DF
S11301D070E08EB580648EBD08B605FEFDCF88B78D
S11301E0806288BF87B586B590E00E94480180E0B0
S11301F090E00E940B0108950E94C5000E94D50062
S1130200FDCF8EB581608EBD8EB582608EBD8EB5FC
S11302108B7F8EBD0895E89409C097FB3EF49095BA
S11302208095709561957F4F8F4F9F4F9923A9F0CB
S1130230F92F96E9BB279395F6958795779567955A
S1130240B795F111F8CFFAF4BB0F11F460FF1BC09E
S11302506F5F7F4F8F4F9F4F16C0882311F096E931
S113026011C0772321F09EE8872F762F05C06623DF
S113027071F096E8862F70E060E02AF09A95660F98
S1130280771F881FDAF7880F9695879597F9089551
S1130290AA1BBB1B51E107C0AA1FBB1FA617B707A8
S11302A010F0A61BB70B881F991F5A95A9F78095C4
S10F02B09095BC01CD010895F894FFCF97
S9030000FC
