S00B000044494F2E737265633D
S11300000C942A000C9447000C9447000C9447006D
S11300100C9447000C9447000C9447000C94470040
S11300200C9447000C9447000C945C000C94490019
S11300300C9447000C9447000C9447000C94470020
S11300400C9447000C9447000C9447000C94470010
S11300500C94470011241FBECFE5D8E0DEBFCDBF0E
S113006010E0A0E6B0E0E2E0F9E002C005900D92F5
S1130070A036B107D9F720E0A0E6B0E001C01D9298
S1130080A236B207E1F70E9405030C947F040C9496
S113009000001F920F9200905F000F921124CF93E3
S11300A0DF93CDB7DEB70000DF91CF910F900092C0
S11300B05F000F901F9018951F920F9200905F00A1
S11300C00F9211242F933F934F935F936F937F93DA
S11300D08F939F93AF93BF93EF93FF93CF93DF934C
S11300E0CDB7DEB70E9489000000DF91CF91FF9168
S11300F0EF91BF91AF919F918F917F916F915F919C
S11301004F913F912F910F9000925F000F901F909D
S11301101895CF93DF93CDB7DEB7809160009091AF
S1130120610001969093610080936000809160006B
S113013090916100883E934010F4789404C010922A
S11301406100109260000000DF91CF910895CF9379
S1130150DF9300D0CDB7DEB789836A838A81882F85
S113016090E0009721F0019709F47AC0EFC08981EB
S11301708830B0F48BE390E02BE330E0F901208188
S1130180622F2981422F50E021E030E002C0220F8B
S1130190331F4A95E2F720952623FC012083D3C020
S11301A089818830E0F089818031C8F488E390E067
S11301B028E330E0F9012081622F2981222F30E0E9
S11301C0A9014850510921E030E002C0220F331F39
S11301D04A95E2F720952623FC01208340C08981BB
S11301E08031E0F089818831C8F485E390E025E32B
S11301F030E0F9012081622F2981222F30E0A9010A
S11302004051510921E030E002C0220F331F4A95CA
S1130210E2F720952623FC01208321C089818831BF
S113022008F491C08981803208F08DC082E390E0A7
S113023022E330E0F9012081622F2981222F30E06E
S1130240A9014851510921E030E002C0220F331FB7
S11302504A95E2F720952623FC01208374C073C0DD
S113026089818830A8F48BE390E02BE330E0F90136
S11302702081622F2981422F50E021E030E002C02A
S1130280220F331F4A95E2F7262BFC0120835DC021
S113029089818830D8F089818031C0F488E390E086
S11302A028E330E0F9012081622F2981222F30E0F8
S11302B0A9014850510921E030E002C0220F331F48
S11302C04A95E2F7262BFC0120833CC089818031CA
S11302D0D8F089818831C0F485E390E025E330E0EB
S11302E0F9012081622F2981222F30E0A901405198
S11302F0510921E030E002C0220F331F4A95E2F792
S1130300262BFC0120831EC089818831F0F089816D
S11303108032D8F482E390E022E330E0F9012081D6
S1130320622F2981222F30E0A9014851510921E08F
S113033030E002C0220F331F4A95E2F7262BFC015E
S1130340208303C002C0000001C0000000000F9021
S11303500F90DF91CF910895CF93DF9300D0CDB765
S1130360DEB789836A838A81882F90E0009721F021
S1130370019709F47AC0EFC089818830B0F48AE328
S113038090E02AE330E0F9012081622F2981422F95
S113039050E021E030E002C0220F331F4A95E2F71B
S11303A020952623FC012083D3C089818830E0F086
S11303B089818031C8F487E390E027E330E0F901D4
S11303C02081622F2981222F30E0A9014850510950
S11303D021E030E002C0220F331F4A95E2F7209556
S11303E02623FC01208340C089818031E0F089818B
S11303F08831C8F484E390E024E330E0F9012081FB
S1130400622F2981222F30E0A9014051510921E0B6
S113041030E002C0220F331F4A95E2F720952623CD
S1130420FC01208321C08981883108F491C089812D
S1130430803208F08DC081E390E021E330E0F901DF
S11304402081622F2981222F30E0A90148515109CE
S113045021E030E002C0220F331F4A95E2F72095D5
S11304602623FC01208374C073C089818830A8F4DA
S11304708AE390E02AE330E0F9012081622F2981A8
S1130480422F50E021E030E002C0220F331F4A9592
S1130490E2F7262BFC0120835DC089818830D8F0E7
S11304A089818031C0F487E390E027E330E0F901EB
S11304B02081622F2981222F30E0A901485051095F
S11304C021E030E002C0220F331F4A95E2F7262BC9
S11304D0FC0120833CC089818031D8F08981883136
S11304E0C0F484E390E024E330E0F9012081622F3A
S11304F02981222F30E0A9014051510921E030E047
S113050002C0220F331F4A95E2F7262BFC012083F9
S11305101EC089818831F0F089818032D8F481E36A
S113052090E021E330E0F9012081622F2981222F1C
S113053030E0A9014851510921E030E002C0220F06
S1130540331F4A95E2F7262BFC01208303C002C027
S1130550000001C0000000000F900F90DF91CF91C8
S11305600895CF93DF93CDB7DEB761E08EE10E94AB
S1130570AC0161E08FE10E94AC0162E081E40E9481
S11305801C030000DF91CF910895CF93DF931F9256
S1130590CDB7DEB789838981882F90E081309105BA
S11305A079F082309105A9F0892B09F01BC061E034
S11305B08EE10E94A70060E08FE10E94A70012C0B4
S11305C060E08EE10E94A70061E08FE10E94A70035
S11305D009C060E08EE10E94A70060E08FE10E9404
S11305E0A700000000000F90DF91CF910895CF93F2
S11305F0DF931F92CDB7DEB7898389810E944104BE
S113060000000F90DF91CF910895CF93DF93CDB782
S1130610DEB70E94B10281E00E94C50288EC0E940C
S1130620F702FFCFCF93DF93CDB7DEB70E945C0410
S11306300000DF91CF910895CF93DF9300D0CDB721
S1130640DEB789836A830E9412038FE490E02FE46B
S113065030E0F90120812260FC0120838FE490E0E6
S11306602FE430E0F90120812160FC0120838EE435
S113067090E02EE430E0F90120812860FC01208321
S11306808DE490E0FC0110828CE490E0FC01108287
S11306908981882F90E08134910529F08234910575
S11306A009F467C0CEC061E08DE10E94AC0189E528
S11306B090E029E530E0F90120812061FC012083EC
S11306C08A81882399F48FE490E02FE430E0F901E3
S11306D020812F77FC0120838FE490E02FE430E029
S11306E0F90120812F7BFC012083A8C08A818130FD
S11306F099F48FE490E02FE430E0F90120812F7722
S1130700FC0120838FE490E02FE430E0F9012081A4
S11307102064FC01208392C08A81823099F48FE4A2
S113072090E02FE430E0F90120812068FC0120836F
S11307308FE490E02FE430E0F90120812F7BFC016D
S113074020837CC08A81833009F078C08FE490E0F4
S11307502FE430E0F90120812068FC0120838FE43C
S113076090E02FE430E0F90120812064FC01208333
S113077065C061E08CE10E94AC0189E590E029E567
S113078030E0F90120812860FC0120838A818823DC
S113079099F48FE490E02FE430E0F90120812F7D7B
S11307A0FC0120838FE490E02FE430E0F901208104
S11307B02F7EFC01208344C08A81813099F48FE428
S11307C090E02FE430E0F90120812F7DFC012083AB
S11307D08FE490E02FE430E0F90120812061FC01F6
S11307E020832EC08A81823099F48FE490E02FE434
S11307F030E0F90120812062FC0120838FE490E045
S11308002FE430E0F90120812F7EFC01208318C001
S11308108A818330A9F48FE490E02FE430E0F90179
S113082020812062FC0120838FE490E02FE430E0FB
S1130830F90120812061FC01208302C0000001C075
S1130840000000000F900F90DF91CF910895CF9397
S1130850DF9300D0CDB7DEB79A8389838BE490E031
S113086029813A81232F3327FC0120838AE490E0F5
S11308702981FC01208300000F900F90DF91CF911C
S11308800895CF93DF9300D01F92CDB7DEB78B834B
S11308908B81882F90E0982F8827990F990F9A833E
S11308A0898389819A810E94270400000F900F9008
S11308B00F90DF91CF910895CF93DF93CDB7DEB73B
S11308C08EE490E02EE430E0F90120812160FC0107
S11308D020838EE490E02EE430E0F9012081226050
S11308E0FC0120838EE490E02EE430E0F9012081C5
S11308F02B7FFC0120830000DF91CF910895F894B1
S1050900FFCF23
S9030000FC
